{
  "contractName": "Ribon",
  "abi": [
    {
      "inputs": [
        {
          "internalType": "address",
          "name": "_donationToken",
          "type": "address"
        }
      ],
      "stateMutability": "nonpayable",
      "type": "constructor"
    },
    {
      "inputs": [],
      "name": "donationPoolBalance",
      "outputs": [
        {
          "internalType": "uint256",
          "name": "",
          "type": "uint256"
        }
      ],
      "stateMutability": "view",
      "type": "function",
      "constant": true
    },
    {
      "inputs": [],
      "name": "donationToken",
      "outputs": [
        {
          "internalType": "contract IERC20",
          "name": "",
          "type": "address"
        }
      ],
      "stateMutability": "view",
      "type": "function",
      "constant": true
    },
    {
      "inputs": [
        {
          "internalType": "address",
          "name": "",
          "type": "address"
        }
      ],
      "name": "integrations",
      "outputs": [
        {
          "internalType": "uint256",
          "name": "balance",
          "type": "uint256"
        }
      ],
      "stateMutability": "view",
      "type": "function",
      "constant": true
    },
    {
      "inputs": [],
      "name": "totalDonated",
      "outputs": [
        {
          "internalType": "uint256",
          "name": "",
          "type": "uint256"
        }
      ],
      "stateMutability": "view",
      "type": "function",
      "constant": true
    },
    {
      "inputs": [
        {
          "internalType": "address",
          "name": "",
          "type": "address"
        }
      ],
      "name": "users",
      "outputs": [
        {
          "internalType": "uint256",
          "name": "balance",
          "type": "uint256"
        }
      ],
      "stateMutability": "view",
      "type": "function",
      "constant": true
    },
    {
      "inputs": [],
      "name": "getDonationPoolBalance",
      "outputs": [
        {
          "internalType": "uint256",
          "name": "",
          "type": "uint256"
        }
      ],
      "stateMutability": "view",
      "type": "function",
      "constant": true
    },
    {
      "inputs": [],
      "name": "getTotalDonated",
      "outputs": [
        {
          "internalType": "uint256",
          "name": "",
          "type": "uint256"
        }
      ],
      "stateMutability": "view",
      "type": "function",
      "constant": true
    },
    {
      "inputs": [
        {
          "internalType": "address",
          "name": "_integration",
          "type": "address"
        }
      ],
      "name": "getIntegrationBalance",
      "outputs": [
        {
          "internalType": "uint256",
          "name": "",
          "type": "uint256"
        }
      ],
      "stateMutability": "view",
      "type": "function",
      "constant": true
    },
    {
      "inputs": [
        {
          "internalType": "address",
          "name": "_user",
          "type": "address"
        }
      ],
      "name": "getUserBalance",
      "outputs": [
        {
          "internalType": "uint256",
          "name": "",
          "type": "uint256"
        }
      ],
      "stateMutability": "view",
      "type": "function",
      "constant": true
    },
    {
      "inputs": [
        {
          "internalType": "address",
          "name": "_user",
          "type": "address"
        },
        {
          "internalType": "address",
          "name": "_nonProfit",
          "type": "address"
        }
      ],
      "name": "getUserImpactByNonProfit",
      "outputs": [
        {
          "internalType": "uint256",
          "name": "",
          "type": "uint256"
        }
      ],
      "stateMutability": "view",
      "type": "function",
      "constant": true
    },
    {
      "inputs": [
        {
          "internalType": "uint256",
          "name": "_amount",
          "type": "uint256"
        }
      ],
      "name": "deposit",
      "outputs": [],
      "stateMutability": "nonpayable",
      "type": "function"
    },
    {
      "inputs": [
        {
          "internalType": "address",
          "name": "_integration",
          "type": "address"
        },
        {
          "internalType": "uint256",
          "name": "_amount",
          "type": "uint256"
        }
      ],
      "name": "allowIntegrationDistribute",
      "outputs": [],
      "stateMutability": "nonpayable",
      "type": "function"
    },
    {
      "inputs": [
        {
          "internalType": "address",
          "name": "_nonProfit",
          "type": "address"
        },
        {
          "internalType": "address",
          "name": "_user",
          "type": "address"
        },
        {
          "internalType": "uint256",
          "name": "_amount",
          "type": "uint256"
        }
      ],
      "name": "donationThroughIntegration",
      "outputs": [],
      "stateMutability": "nonpayable",
      "type": "function"
    }
  ],
  "bytecode": "0x60806040523480156200001157600080fd5b506040516200136338038062001363833981810160405281019062000037919062000095565b806000806101000a81548173ffffffffffffffffffffffffffffffffffffffff021916908373ffffffffffffffffffffffffffffffffffffffff160217905550506200010f565b6000815190506200008f81620000f5565b92915050565b600060208284031215620000a857600080fd5b6000620000b8848285016200007e565b91505092915050565b6000620000ce82620000d5565b9050919050565b600073ffffffffffffffffffffffffffffffffffffffff82169050919050565b6200010081620000c1565b81146200010c57600080fd5b50565b611244806200011f6000396000f3fe608060405234801561001057600080fd5b50600436106100ce5760003560e01c806365296d0c1161008c578063a52c4b5c11610066578063a52c4b5c14610225578063a87430ba14610243578063b6b55f2514610273578063d56e30681461028f576100ce565b806365296d0c146101bb5780637d432e98146101d95780638b4276c614610209576100ce565b8062b37044146100d357806305e64794146100f15780630df7215914610121578063477348921461013f578063529b179d1461016f5780636104647c1461018b575b600080fd5b6100db6102ad565b6040516100e89190611013565b60405180910390f35b61010b60048036038101906101069190610c1a565b6102b3565b6040516101189190611013565b60405180910390f35b6101296102d1565b6040516101369190610f76565b60405180910390f35b61015960048036038101906101549190610c1a565b6102f5565b6040516101669190611013565b60405180910390f35b61018960048036038101906101849190610cce565b610341565b005b6101a560048036038101906101a09190610c1a565b6103ed565b6040516101b29190611013565b60405180910390f35b6101c3610439565b6040516101d09190611013565b60405180910390f35b6101f360048036038101906101ee9190610c43565b610443565b6040516102009190611013565b60405180910390f35b610223600480360381019061021e9190610c7f565b6104cd565b005b61022d6107cd565b60405161023a9190611013565b60405180910390f35b61025d60048036038101906102589190610c1a565b6107d3565b60405161026a9190611013565b60405180910390f35b61028d60048036038101906102889190610d33565b6107f1565b005b610297610855565b6040516102a49190611013565b60405180910390f35b60025481565b60056020528060005260406000206000915090508060000154905081565b60008054906101000a900473ffffffffffffffffffffffffffffffffffffffff1681565b6000600460008373ffffffffffffffffffffffffffffffffffffffff1673ffffffffffffffffffffffffffffffffffffffff168152602001908152602001600020600001549050919050565b8060015461034f91906110b6565b60018190555080600560008473ffffffffffffffffffffffffffffffffffffffff1673ffffffffffffffffffffffffffffffffffffffff168152602001908152602001600020600001546103a39190611060565b600560008473ffffffffffffffffffffffffffffffffffffffff1673ffffffffffffffffffffffffffffffffffffffff168152602001908152602001600020600001819055505050565b6000600560008373ffffffffffffffffffffffffffffffffffffffff1673ffffffffffffffffffffffffffffffffffffffff168152602001908152602001600020600001549050919050565b6000600154905090565b6000600460008473ffffffffffffffffffffffffffffffffffffffff1673ffffffffffffffffffffffffffffffffffffffff16815260200190815260200160002060010160008373ffffffffffffffffffffffffffffffffffffffff1673ffffffffffffffffffffffffffffffffffffffff16815260200190815260200160002054905092915050565b80600560003373ffffffffffffffffffffffffffffffffffffffff1673ffffffffffffffffffffffffffffffffffffffff1681526020019081526020016000206000015461051b91906110b6565b600560003373ffffffffffffffffffffffffffffffffffffffff1673ffffffffffffffffffffffffffffffffffffffff1681526020019081526020016000206000018190555080600560003373ffffffffffffffffffffffffffffffffffffffff1673ffffffffffffffffffffffffffffffffffffffff16815260200190815260200160002060010160008573ffffffffffffffffffffffffffffffffffffffff1673ffffffffffffffffffffffffffffffffffffffff168152602001908152602001600020546105ec9190611060565b600560003373ffffffffffffffffffffffffffffffffffffffff1673ffffffffffffffffffffffffffffffffffffffff16815260200190815260200160002060010160008573ffffffffffffffffffffffffffffffffffffffff1673ffffffffffffffffffffffffffffffffffffffff1681526020019081526020016000208190555080600460008473ffffffffffffffffffffffffffffffffffffffff1673ffffffffffffffffffffffffffffffffffffffff16815260200190815260200160002060010160008573ffffffffffffffffffffffffffffffffffffffff1673ffffffffffffffffffffffffffffffffffffffff168152602001908152602001600020546106fa9190611060565b600460008473ffffffffffffffffffffffffffffffffffffffff1673ffffffffffffffffffffffffffffffffffffffff16815260200190815260200160002060010160008573ffffffffffffffffffffffffffffffffffffffff1673ffffffffffffffffffffffffffffffffffffffff168152602001908152602001600020819055506107c8838260008054906101000a900473ffffffffffffffffffffffffffffffffffffffff1673ffffffffffffffffffffffffffffffffffffffff1661085f9092919063ffffffff16565b505050565b60015481565b60046020528060005260406000206000915090508060000154905081565b806001546107ff9190611060565b60018190555061085233308360008054906101000a900473ffffffffffffffffffffffffffffffffffffffff1673ffffffffffffffffffffffffffffffffffffffff166108e5909392919063ffffffff16565b50565b6000600254905090565b6108e08363a9059cbb60e01b848460405160240161087e929190610f4d565b604051602081830303815290604052907bffffffffffffffffffffffffffffffffffffffffffffffffffffffff19166020820180517bffffffffffffffffffffffffffffffffffffffffffffffffffffffff838183161783525050505061096e565b505050565b610968846323b872dd60e01b85858560405160240161090693929190610f16565b604051602081830303815290604052907bffffffffffffffffffffffffffffffffffffffffffffffffffffffff19166020820180517bffffffffffffffffffffffffffffffffffffffffffffffffffffffff838183161783525050505061096e565b50505050565b60006109d0826040518060400160405280602081526020017f5361666545524332303a206c6f772d6c6576656c2063616c6c206661696c65648152508573ffffffffffffffffffffffffffffffffffffffff16610a359092919063ffffffff16565b9050600081511115610a3057808060200190518101906109f09190610d0a565b610a2f576040517f08c379a0000000000000000000000000000000000000000000000000000000008152600401610a2690610ff3565b60405180910390fd5b5b505050565b6060610a448484600085610a4d565b90509392505050565b606082471015610a92576040517f08c379a0000000000000000000000000000000000000000000000000000000008152600401610a8990610fb3565b60405180910390fd5b610a9b85610b61565b610ada576040517f08c379a0000000000000000000000000000000000000000000000000000000008152600401610ad190610fd3565b60405180910390fd5b6000808673ffffffffffffffffffffffffffffffffffffffff168587604051610b039190610eff565b60006040518083038185875af1925050503d8060008114610b40576040519150601f19603f3d011682016040523d82523d6000602084013e610b45565b606091505b5091509150610b55828286610b74565b92505050949350505050565b600080823b905060008111915050919050565b60608315610b8457829050610bd4565b600083511115610b975782518084602001fd5b816040517f08c379a0000000000000000000000000000000000000000000000000000000008152600401610bcb9190610f91565b60405180910390fd5b9392505050565b600081359050610bea816111c9565b92915050565b600081519050610bff816111e0565b92915050565b600081359050610c14816111f7565b92915050565b600060208284031215610c2c57600080fd5b6000610c3a84828501610bdb565b91505092915050565b60008060408385031215610c5657600080fd5b6000610c6485828601610bdb565b9250506020610c7585828601610bdb565b9150509250929050565b600080600060608486031215610c9457600080fd5b6000610ca286828701610bdb565b9350506020610cb386828701610bdb565b9250506040610cc486828701610c05565b9150509250925092565b60008060408385031215610ce157600080fd5b6000610cef85828601610bdb565b9250506020610d0085828601610c05565b9150509250929050565b600060208284031215610d1c57600080fd5b6000610d2a84828501610bf0565b91505092915050565b600060208284031215610d4557600080fd5b6000610d5384828501610c05565b91505092915050565b610d65816110ea565b82525050565b6000610d768261102e565b610d808185611044565b9350610d90818560208601611156565b80840191505092915050565b610da581611132565b82525050565b6000610db682611039565b610dc0818561104f565b9350610dd0818560208601611156565b610dd9816111b8565b840191505092915050565b6000610df160268361104f565b91507f416464726573733a20696e73756666696369656e742062616c616e636520666f60008301527f722063616c6c00000000000000000000000000000000000000000000000000006020830152604082019050919050565b6000610e57601d8361104f565b91507f416464726573733a2063616c6c20746f206e6f6e2d636f6e74726163740000006000830152602082019050919050565b6000610e97602a8361104f565b91507f5361666545524332303a204552433230206f7065726174696f6e20646964206e60008301527f6f742073756363656564000000000000000000000000000000000000000000006020830152604082019050919050565b610ef981611128565b82525050565b6000610f0b8284610d6b565b915081905092915050565b6000606082019050610f2b6000830186610d5c565b610f386020830185610d5c565b610f456040830184610ef0565b949350505050565b6000604082019050610f626000830185610d5c565b610f6f6020830184610ef0565b9392505050565b6000602082019050610f8b6000830184610d9c565b92915050565b60006020820190508181036000830152610fab8184610dab565b905092915050565b60006020820190508181036000830152610fcc81610de4565b9050919050565b60006020820190508181036000830152610fec81610e4a565b9050919050565b6000602082019050818103600083015261100c81610e8a565b9050919050565b60006020820190506110286000830184610ef0565b92915050565b600081519050919050565b600081519050919050565b600081905092915050565b600082825260208201905092915050565b600061106b82611128565b915061107683611128565b9250827fffffffffffffffffffffffffffffffffffffffffffffffffffffffffffffffff038211156110ab576110aa611189565b5b828201905092915050565b60006110c182611128565b91506110cc83611128565b9250828210156110df576110de611189565b5b828203905092915050565b60006110f582611108565b9050919050565b60008115159050919050565b600073ffffffffffffffffffffffffffffffffffffffff82169050919050565b6000819050919050565b600061113d82611144565b9050919050565b600061114f82611108565b9050919050565b60005b83811015611174578082015181840152602081019050611159565b83811115611183576000848401525b50505050565b7f4e487b7100000000000000000000000000000000000000000000000000000000600052601160045260246000fd5b6000601f19601f8301169050919050565b6111d2816110ea565b81146111dd57600080fd5b50565b6111e9816110fc565b81146111f457600080fd5b50565b61120081611128565b811461120b57600080fd5b5056fea26469706673582212207f05216787650541270953bc84b455e8c722821e56fdf9b1d3f3046a57e7177b64736f6c63430008000033",
  "immutableReferences": {},
  "source": "// SPDX-License-Identifier: MIT\npragma solidity ^0.8.0;\n\nimport \"@openzeppelin/contracts/token/ERC20/IERC20.sol\";\nimport \"@openzeppelin/contracts/utils/Address.sol\";\nimport \"@openzeppelin/contracts/token/ERC20/ERC20.sol\";\nimport \"@openzeppelin/contracts/token/ERC20/utils/SafeERC20.sol\";\n\ncontract Ribon {\n    using SafeERC20 for IERC20;\n    IERC20 public donationToken;\n\n    uint256 public donationPoolBalance;\n    uint256 public totalDonated;\n\n    address[] nonProfits;\n\n    struct user {\n        uint256 balance;\n        mapping(address => uint256) totalDonatedByNonProfit;\n    }\n\n    mapping(address => user) public users;\n\n    struct integration {\n        uint256 balance;\n        mapping(address => uint256) totalDonatedByNonProfit;\n    }\n\n    mapping(address => integration) public integrations;\n\n    constructor(address _donationToken) {\n        donationToken = IERC20(_donationToken);\n    }\n\n    function getDonationPoolBalance() public view returns (uint256) {\n        return donationPoolBalance;\n    }\n\n    function getTotalDonated() public view returns (uint256) {\n        return totalDonated;\n    }\n\n    function getIntegrationBalance(address _integration)\n        public\n        view\n        returns (uint256)\n    {\n        return integrations[_integration].balance;\n    }\n\n    function getUserBalance(address _user) public view returns (uint256) {\n        return users[_user].balance;\n    }\n\n    function getUserImpactByNonProfit(address _user, address _nonProfit)\n        public\n        view\n        returns (uint256)\n    {\n        return users[_user].totalDonatedByNonProfit[_nonProfit];\n    }\n\n    function deposit(uint256 _amount) public {\n        donationPoolBalance = donationPoolBalance + _amount;\n        donationToken.safeTransferFrom(msg.sender, address(this), _amount);\n    }\n\n    function allowIntegrationDistribute(address _integration, uint256 _amount)\n        public\n    {\n        donationPoolBalance = donationPoolBalance - _amount;\n        integrations[_integration].balance =\n            integrations[_integration].balance +\n            _amount;\n    }\n\n    function donationThroughIntegration(\n        address _nonProfit,\n        address _user,\n        uint256 _amount\n    ) public {\n        integrations[msg.sender].balance =\n            integrations[msg.sender].balance -\n            _amount;\n        integrations[msg.sender].totalDonatedByNonProfit[_nonProfit] =\n            integrations[msg.sender].totalDonatedByNonProfit[_nonProfit] +\n            _amount;\n        users[_user].totalDonatedByNonProfit[_nonProfit] =\n            users[_user].totalDonatedByNonProfit[_nonProfit] +\n            _amount;\n        donationToken.safeTransfer(_nonProfit, _amount);\n    }\n}\n",
  "sourcePath": "/Users/ribon/Projects/Ribon/crypto/ribon-v1-core/contracts/Ribon.sol",
  "compiler": {
    "name": "solc",
    "version": "0.8.0+commit.c7dfd78e.Emscripten.clang"
  },
  "schemaVersion": "3.3.1",
  "updatedAt": "2021-06-25T21:31:29.963Z",
  "networkType": "ethereum",
  "devdoc": {
    "kind": "dev",
    "methods": {},
    "version": 1
  },
  "userdoc": {
    "kind": "user",
    "methods": {},
    "version": 1
  }
}